{
  "contractName": "Airlines",
  "abi": [
    {
      "constant": true,
      "inputs": [
        {
          "name": "",
          "type": "address"
        }
      ],
      "name": "escrow",
      "outputs": [
        {
          "name": "",
          "type": "uint256"
        }
      ],
      "payable": false,
      "stateMutability": "view",
      "type": "function"
    },
    {
      "inputs": [],
      "payable": true,
      "stateMutability": "payable",
      "type": "constructor"
    },
    {
      "constant": false,
      "inputs": [],
      "name": "register",
      "outputs": [],
      "payable": true,
      "stateMutability": "payable",
      "type": "function"
    },
    {
      "constant": false,
      "inputs": [
        {
          "name": "AirlineZ",
          "type": "address"
        }
      ],
      "name": "unRegister",
      "outputs": [],
      "payable": false,
      "stateMutability": "nonpayable",
      "type": "function"
    },
    {
      "constant": false,
      "inputs": [
        {
          "name": "reqID",
          "type": "uint256"
        },
        {
          "name": "flighID",
          "type": "uint256"
        },
        {
          "name": "numSeats",
          "type": "uint256"
        },
        {
          "name": "custID",
          "type": "uint256"
        },
        {
          "name": "toAirline",
          "type": "address"
        }
      ],
      "name": "requestASK",
      "outputs": [],
      "payable": false,
      "stateMutability": "nonpayable",
      "type": "function"
    },
    {
      "constant": false,
      "inputs": [
        {
          "name": "reqID",
          "type": "uint256"
        },
        {
          "name": "success",
          "type": "bool"
        },
        {
          "name": "fromAirline",
          "type": "address"
        }
      ],
      "name": "responseASK",
      "outputs": [],
      "payable": false,
      "stateMutability": "nonpayable",
      "type": "function"
    },
    {
      "constant": false,
      "inputs": [
        {
          "name": "reqID",
          "type": "uint256"
        },
        {
          "name": "toAirline",
          "type": "address"
        },
        {
          "name": "numSeats",
          "type": "uint256"
        }
      ],
      "name": "settlePayment",
      "outputs": [],
      "payable": true,
      "stateMutability": "payable",
      "type": "function"
    },
    {
      "constant": false,
      "inputs": [],
      "name": "replinishEscrow",
      "outputs": [],
      "payable": true,
      "stateMutability": "payable",
      "type": "function"
    }
  ],
  "bytecode": "0x6080604052336000806101000a81548173ffffffffffffffffffffffffffffffffffffffff021916908373ffffffffffffffffffffffffffffffffffffffff1602179055506001600260003373ffffffffffffffffffffffffffffffffffffffff1673ffffffffffffffffffffffffffffffffffffffff1681526020019081526020016000208190555034600160003373ffffffffffffffffffffffffffffffffffffffff1673ffffffffffffffffffffffffffffffffffffffff16815260200190815260200160002081905550610aa5806100dc6000396000f3fe60806040526004361061007d576000357c0100000000000000000000000000000000000000000000000000000000900480631aa3a0081461008257806327c956251461008c57806357d3c7c3146100dd578063a1dd8b6014610142578063da419f861461014c578063f85fdca7146101a4578063fa0a63e41461021d575b600080fd5b61008a610284565b005b34801561009857600080fd5b506100db600480360360208110156100af57600080fd5b81019080803573ffffffffffffffffffffffffffffffffffffffff169060200190929190505050610315565b005b3480156100e957600080fd5b5061012c6004803603602081101561010057600080fd5b81019080803573ffffffffffffffffffffffffffffffffffffffff1690602001909291905050506104de565b6040518082815260200191505060405180910390f35b61014a6104f6565b005b6101a26004803603606081101561016257600080fd5b8101908080359060200190929190803573ffffffffffffffffffffffffffffffffffffffff1690602001909291908035906020019092919050505061057d565b005b3480156101b057600080fd5b5061021b600480360360a08110156101c757600080fd5b8101908080359060200190929190803590602001909291908035906020019092919080359060200190929190803573ffffffffffffffffffffffffffffffffffffffff169060200190929190505050610724565b005b34801561022957600080fd5b506102826004803603606081101561024057600080fd5b8101908080359060200190929190803515159060200190929190803573ffffffffffffffffffffffffffffffffffffffff1690602001909291905050506108b6565b005b60003390506001600260008373ffffffffffffffffffffffffffffffffffffffff1673ffffffffffffffffffffffffffffffffffffffff1681526020019081526020016000208190555034600160003373ffffffffffffffffffffffffffffffffffffffff1673ffffffffffffffffffffffffffffffffffffffff1681526020019081526020016000208190555050565b6000809054906101000a900473ffffffffffffffffffffffffffffffffffffffff1673ffffffffffffffffffffffffffffffffffffffff163373ffffffffffffffffffffffffffffffffffffffff1614151561037057600080fd5b3373ffffffffffffffffffffffffffffffffffffffff166000809054906101000a900473ffffffffffffffffffffffffffffffffffffffff1673ffffffffffffffffffffffffffffffffffffffff161415156103cb57600080fd5b6000600260008373ffffffffffffffffffffffffffffffffffffffff1673ffffffffffffffffffffffffffffffffffffffff168152602001908152602001600020819055508073ffffffffffffffffffffffffffffffffffffffff166108fc600160008473ffffffffffffffffffffffffffffffffffffffff1673ffffffffffffffffffffffffffffffffffffffff168152602001908152602001600020549081150290604051600060405180830381858888f19350505050158015610495573d6000803e3d6000fd5b506000600160008373ffffffffffffffffffffffffffffffffffffffff1673ffffffffffffffffffffffffffffffffffffffff1681526020019081526020016000208190555050565b60016020528060005260406000206000915090505481565b34600160003373ffffffffffffffffffffffffffffffffffffffff1673ffffffffffffffffffffffffffffffffffffffff1681526020019081526020016000205401600160003373ffffffffffffffffffffffffffffffffffffffff1673ffffffffffffffffffffffffffffffffffffffff16815260200190815260200160002081905550565b6001600260003373ffffffffffffffffffffffffffffffffffffffff1673ffffffffffffffffffffffffffffffffffffffff168152602001908152602001600020541415156105cb57600080fd5b600033905081600160008573ffffffffffffffffffffffffffffffffffffffff1673ffffffffffffffffffffffffffffffffffffffff1681526020019081526020016000205401600160008573ffffffffffffffffffffffffffffffffffffffff1673ffffffffffffffffffffffffffffffffffffffff1681526020019081526020016000208190555081600160008373ffffffffffffffffffffffffffffffffffffffff1673ffffffffffffffffffffffffffffffffffffffff1681526020019081526020016000205403600160008373ffffffffffffffffffffffffffffffffffffffff1673ffffffffffffffffffffffffffffffffffffffff1681526020019081526020016000208190555083600560003373ffffffffffffffffffffffffffffffffffffffff1673ffffffffffffffffffffffffffffffffffffffff1681526020019081526020016000208190555050505050565b6001600260003373ffffffffffffffffffffffffffffffffffffffff1673ffffffffffffffffffffffffffffffffffffffff1681526020019081526020016000205414151561077257600080fd5b6001600260008373ffffffffffffffffffffffffffffffffffffffff1673ffffffffffffffffffffffffffffffffffffffff168152602001908152602001600020541415156107c057600080fd5b60a0604051908101604052808681526020018581526020018481526020018381526020018273ffffffffffffffffffffffffffffffffffffffff16815250600360003373ffffffffffffffffffffffffffffffffffffffff1673ffffffffffffffffffffffffffffffffffffffff1681526020019081526020016000206000820151816000015560208201518160010155604082015181600201556060820151816003015560808201518160040160006101000a81548173ffffffffffffffffffffffffffffffffffffffff021916908373ffffffffffffffffffffffffffffffffffffffff1602179055509050505050505050565b6001600260003373ffffffffffffffffffffffffffffffffffffffff1673ffffffffffffffffffffffffffffffffffffffff1681526020019081526020016000205414151561090457600080fd5b6001600260008373ffffffffffffffffffffffffffffffffffffffff1673ffffffffffffffffffffffffffffffffffffffff1681526020019081526020016000205414151561095257600080fd5b81600460003373ffffffffffffffffffffffffffffffffffffffff1673ffffffffffffffffffffffffffffffffffffffff16815260200190815260200160002060010160006101000a81548160ff02191690831515021790555080600460003373ffffffffffffffffffffffffffffffffffffffff1673ffffffffffffffffffffffffffffffffffffffff16815260200190815260200160002060010160016101000a81548173ffffffffffffffffffffffffffffffffffffffff021916908373ffffffffffffffffffffffffffffffffffffffff16021790555082600460003373ffffffffffffffffffffffffffffffffffffffff1673ffffffffffffffffffffffffffffffffffffffff1681526020019081526020016000206000018190555050505056fea165627a7a723058208471d55f54624c67a265b49884c0b11985afcb0f893e5c68fa5e9d3d5ad09f970029",
  "source": "pragma solidity ^0.5.0;\r\n    \r\n    contract Airlines  {\r\n   \r\n    address chairperson;\r\n    \r\n    struct reqStruc{\r\n        uint fID;\r\n        uint numSeats;\r\n        uint passengerID;\r\n        uint reqID;\r\n        address toAirln;\r\n    } \r\n\r\n   struct respStruc{\r\n        uint reqID;\r\n        bool status;\r\n        address fromAirline;\r\n    } \r\n\r\n    \r\n    \r\n    mapping (address=>uint) public escrow;\r\n    mapping (address=>uint) membership; \r\n    mapping (address=>reqStruc) reqs;\r\n    mapping (address=>respStruc) reps;\r\n    mapping (address=>uint) settledReqID;\r\n    \r\n    //modifier or rules\r\n    modifier onlyChairperson{\r\n        require(msg.sender==chairperson);\r\n        _;\r\n    }\r\n    modifier onlyMember{\r\n        require(membership[msg.sender]==1);\r\n        _;\r\n    }\r\n    \r\n    // constructor function\r\n    constructor () public payable  {\r\n      \r\n        chairperson=msg.sender;\r\n        membership[msg.sender]=1; // automatically registered\r\n        escrow[msg.sender] = msg.value;\r\n\r\n        \r\n    }\r\n    \r\n    function register ( ) public payable{\r\n        \r\n        address AirlineA =msg.sender;\r\n        membership[AirlineA]=1;\r\n        escrow[msg.sender] = msg.value;\r\n\r\n        \r\n    }\r\n        \r\n   function unRegister (address payable AirlineZ) onlyChairperson public {\r\n        \r\n        if(chairperson!=msg.sender){\r\n            revert();\r\n        }\r\n        membership[AirlineZ]=0;\r\n        //return escrow to leaving airline: other consitions may be verified\r\n        AirlineZ.transfer(escrow[AirlineZ]);\r\n        escrow[AirlineZ] = 0;\r\n        \r\n    }\r\n    \r\n    \r\n    function requestASK (uint reqID, uint flighID, uint numSeats, uint custID, address toAirline) onlyMember public{\r\n        /*if(membership[toAirline]!=1){\r\n            revert();}  */\r\n        require(membership[toAirline] == 1);\r\n        reqs[msg.sender] = reqStruc(reqID, flighID, numSeats, custID, toAirline);\r\n      \r\n    }\r\n    \r\n    function  responseASK (uint reqID, bool success, address fromAirline) onlyMember public{\r\n      \r\n        if(membership[fromAirline]!=1){\r\n            revert();\r\n        }\r\n        \r\n        reps[msg.sender].status=success;\r\n        reps[msg.sender].fromAirline = fromAirline;\r\n        reps[msg.sender].reqID = reqID;\r\n       \r\n       \r\n    }\r\n    \r\n    function settlePayment  (uint reqID, address payable toAirline, uint numSeats) onlyMember payable public{\r\n        //before calling this, it will update ASK view table\r\n        address fromAirline=msg.sender;\r\n        //asseume 1 unit of escrow for each seat \r\n        \r\n        //this is the consortium account transfer you want to do\r\n        escrow[toAirline] = escrow[toAirline] + numSeats;\r\n        escrow[fromAirline] = escrow[fromAirline] - numSeats;\r\n       \r\n        settledReqID[msg.sender] = reqID;\r\n       \r\n    }\r\n    \r\n    function replinishEscrow() payable public\r\n    {\r\n        escrow[msg.sender] = escrow[msg.sender] + msg.value;\r\n    }\r\n}\r\n\r\n\r\n    ",
  "sourcePath": "/Users/bobbyda/ask-app/ask-contract/contracts/ASK6.sol",
  "compiler": {
    "name": "solc",
    "version": "0.5.1+commit.c8a2cb62.Emscripten.clang"
  },
  "schemaVersion": "3.0.9",
  "updatedAt": "2019-05-24T23:05:09.345Z",
  "devdoc": {
    "methods": {}
  },
  "userdoc": {
    "methods": {}
  }
}